:020000040000fa
:080000000001040000000000f3
:020000040000fa
:0400080044070000a9
:020000040000fa
:04000c0044070000a5
:020000040000fa
:0400100044070000a1
:020000040000fa
:04001400440700009d
:020000040000fa
:040018004407000099
:020000040000fa
:04001c004407000095
:020000040000fa
:040020004407000091
:020000040000fa
:04002400440700008d
:020000040000fa
:040028004407000089
:020000040000fa
:04002c004407000085
:020000040000fa
:040030004407000081
:020000040000fa
:04003400440700007d
:020000040000fa
:040038004407000079
:020000040000fa
:04003c004407000075
:020000040000fa
:040040004407000071
:020000040000fa
:04004400a402000012
:020000040000fa
:040048004407000069
:020000040000fa
:04004c004407000065
:020000040000fa
:040050004407000061
:020000040000fa
:04005400440700005d
:020000040000fa
:040058004407000059
:020000040000fa
:04005c004407000055
:020000040000fa
:040060004407000051
:020000040000fa
:04006400440700004d
:020000040000fa
:040068004407000049
:020000040000fa
:04006c004407000045
:020000040000fa
:040070004407000041
:020000040000fa
:04007400440700003d
:020000040000fa
:040078004407000039
:020000040000fa
:04007c004407000035
:020000040000fa
:04008000e402000096
:020000040000fa
:04008400440700002d
:020000040000fa
:040088004407000029
:020000040000fa
:04008c004407000025
:020000040000fa
:040090004407000021
:020000040000fa
:04009400440700001d
:020000040000fa
:040098004407000019
:020000040000fa
:04009c004407000015
:020000040000fa
:0400a0004407000011
:020000040000fa
:0400a400440700000d
:020000040000fa
:0400a8004407000009
:020000040000fa
:0400ac004407000005
:020000040000fa
:0400b0004407000001
:020000040000fa
:0400b40044070000fd
:020000040000fa
:0400b80044070000f9
:020000040000fa
:0400bc0044070000f5
:020000040000fa
:0400c00044070000f1
:020000040000fa
:0400c400c80100006f
:020000040000fa
:0400c80044070000e9
:020000040000fa
:0400cc0044070000e5
:020000040000fa
:0400d00044070000e1
:020000040000fa
:0400d40044070000dd
:020000040000fa
:0400d80044070000d9
:020000040000fa
:0401080044070000a8
:020000040000fa
:04010c0044070000a4
:020000040000fa
:0401100044070000a0
:020000040000fa
:04011400440700009c
:020000040000fa
:040118004407000098
:020000040000fa
:04011c004407000094
:020000040000fa
:040120004407000090
:020000040000fa
:04012400440700008c
:020000040000fa
:040128004407000088
:020000040000fa
:04012c004407000084
:020000040000fa
:040130004407000080
:020000040000fa
:04013400440700007c
:020000040000fa
:040138004407000078
:020000040000fa
:04013c004407000074
:020000040000fa
:040140004407000070
:020000040000fa
:04014400440700006c
:020000040000fa
:040148004407000068
:020000040000fa
:04014c004407000064
:020000040000fa
:040150004407000060
:020000040000fa
:04015400440700005c
:020000040000fa
:040158004407000058
:020000040000fa
:04015c004407000054
:020000040000fa
:040160004407000050
:020000040000fa
:04016400440700004c
:020000040000fa
:040168004407000048
:020000040000fa
:04016c004407000044
:020000040000fa
:040170004407000040
:020000040000fa
:04017400440700003c
:020000040000fa
:040178004407000038
:020000040000fa
:04017c004407000034
:020000040000fa
:040180004407000030
:020000040000fa
:04018400440700002c
:020000040000fa
:040188004407000028
:020000040000fa
:04018c004407000024
:020000040000fa
:040190004407000020
:020000040000fa
:04019400440700001c
:020000040000fa
:040198004407000018
:020000040000fa
:04019c004407000014
:020000040000fa
:0401a0004407000010
:020000040000fa
:0401a400440700000c
:020000040000fa
:0401a8004407000008
:020000040000fa
:0401ac004407000004
:020000040000fa
:0401b0004407000000
:020000040000fa
:0401b40044070000fc
:020000040000fa
:0401b80044070000f8
:020000040000fa
:0401bc0044070000f4
:020000040000fa
:0401c00044070000f0
:020000040000fa
:0401c40044070000ec
:020000040000fa
:0401c80044070000e8
:020000040000fa
:0401cc0044070000e4
:020000040000fa
:0401d00044070000e0
:020000040000fa
:0401d40044070000dc
:020000040000fa
:0401d80044070000d8
:020000040000fa
:100200004f842000aefe20000e0188000000000098
:10021000000020000000e000020032000001200089
:100220002002880014000700520307000000e000cd
:1002300003003a00c0cb200001002000020037007c
:100240000000200001002000810f7000010032003a
:1002500014000700000020000000e000020032004f
:100260000000020000000000000302000000000087
:100270000040da000000fe004440a90000502000c9
:100280000000e0000300320000002000a001880010
:100290004440a800000006008a1f78008b1f7800e9
:1002a0000000060091018800800478000000eb0047
:1002b0001a003700e284440032a0b4009905ba0065
:1002c000e284440032a0b4009906ba00e2844400fb
:1002d00032a0b4000006eb00476fde00fd07b2005d
:1002e000636ce10003003a00ebff07000000eb0045
:1002f0000a003700606ce10004003a00005deb008a
:100300008b05e900fdff3e00040037006168e10055
:10031000010032000086eb000b00070019c7ba008d
:100320001905ba000e04e00003003a000a00e000dc
:10033000e0ff3a0000000600fe07b2009e018800c0
:100340008a047800f5ff3700395dba008b05e900b3
:100350000c003200295dba008b05e900080032006c
:100360000c00e00003003a00e284440032a0b40034
:10037000f5ff370019ddba008b05e900faff3a00f6
:100380008904e800e184440032a0b40000000600c3
:100390003600f800809fbe00829fbe00849fbe0092
:1003a000869fbe000000fa00004080000000e800c8
:1003b000004088000140800000082000808f50002d
:1003c0001e003a000028ef00501680004700de00b3
:1003d0006140600000c0ea00614060000080fb00f6
:1003e000610060004700dd00511680000170a1002f
:1003f000010070005016880010428000e10f50008c
:100400000e003a00b04180000000e800b0418800d2
:10041000b041800000418800b141800010222000de
:10042000808f500005003a004228ef001022200083
:10043000b0418800b0418000004188000140800048
:10044000e001200000017800110009008280d8003e
:100450008000fd000000e00017003a0010c0b3006b
:100460007c0207002040880020408000f040880087
:1004700020408000c0418800808120008402070065
:10048000e1408000b0418000008040004040880092
:100490004140800000402000808f50000600360060
:1004a0000040200040408800b04180000140200012
:1004b00000805000e040880088e0a90000408000f3
:1004c0000000e80010408800114080000008200073
:1004d000808f500001003a000228ef001040800099
:1004e00080004000808b2800008040009000780051
:1004f000404080000088b900000078004a00de001b
:10050000b00e880010428000e10f500002003a0057
:10051000e200070001003700c6000700ef000700f7
:10052000fe00070017010700240107000080fa0001
:100530004f03be004f02be004f01be004f00be0081
:100540003600f90000400600809fbe00829fbe007a
:100550003400f80000002000a00188000000fa002c
:1005600084e0a900004820007008880092418000c3
:10057000a3418000800c200001002000800f51006a
:10058000818f590004003a00cb02a80013e1a900b2
:100590003228ef003428ef000a21ef00904180005c
:1005a000a141800061004000e08048009041880047
:1005b000a14188000080fa003400f9004f01be001c
:1005c0004f00be0000400600801f78003400f80095
:1005d00000002000a00188000000fa0086c0a900e9
:1005e00000482000e0088800d1c2a80021e1a9004d
:1005f0000080fa003400f9004f0078000040060047
:100600000000fa0002020700290007003900070075
:100610006600070076000700cb01070082cb2800a8
:1006200021c0b30020c0b30077010700a0832000e1
:10063000c0408800a0ff2000d040880080812000ba
:100640002f0207006066220010418800608f2000a2
:100650002041880050b8200030418800818120006e
:1006600020822000310207002028ef00d621ef0071
:100670008ce0a8008ec0a80090e0a8000100370020
:100680000000000051168000001020000080600073
:100690000000e000faff3200660007008f0007004c
:1006a0009e000700b7000700c4000700f5ff3700f1
:1006b0000000fa008020ef008220ef0088e0a9000f
:1006c00090e0a90000002200000e8800f08f2000ba
:1006d000200e880000f12000400e8800ca21ef00a3
:1006e00000072000b00e8800c1e1a8000080fa00d9
:1006f000000006000000fa0000f82f0040158800f6
:1007000011158000f0ff21000080600010158800a6
:100710002115800000fc2f00008060009000b300d5
:100720002015880011158000f0cf2f000080600098
:1007300010158800a062a800aa22ef00a622ef00f0
:1007400001158000000e20000100700000158800d7
:10075000a042a900a002a900a1e2a900a022a8002d
:1007600021158000f00f2e00008060000080a000a6
:100770002015880001158000f0cf2f000080600058
:1007800000158800a2e2a9001115800030fc2f009e
:100790000080600010158800a222a900a202a90012
:1007a000a1e2a8000080fa00000006000000fa00a4
:1007b0001221ef00b1048000f0ff2800808060006b
:1007c0000000260001007000b00488000a21ef003c
:1007d0001281a80012a1a80000482000700888001b
:1007e00084e0a9008ce0a9000080fa000000060067
:1007f0000000fa002021ef00f1048000f08f2f00ac
:10080000808060000050200001007000f00488002b
:100810001821ef002081a80020a1a8000048200096
:100820007008880086c0a9008ec0a9000080fa0068
:10083000000006000000fa0010c0b30085010700a8
:100840008041880081418000d0232000808f5000ab
:100850000400360010c0b3000ee8b700d642a8006e
:10086000020037000e68ef00d642a90081418000e7
:10087000901e2000808f500004003e0010c0b30086
:100880000fe8b700d602a800020037000f68ef009b
:10089000d602a9000080fa00000006000000fa005d
:1008a00010c0b3006b0107007041880071418000e7
:1008b000d0232000808f50000400360010c0b30009
:1008c0000ee8b700d642a800020037000e68ef001d
:1008d000d642a9000080fa00000006000000fa00dd
:1008e00020c0b3005b0107006041880061418000c7
:1008f00000202000808f50000400360010c0b3009c
:1009000010e8b700d662a800020037001068ef00b8
:10091000d662a9000080fa00000006000000fa007c
:1009200030c0b3004b0107005041880051418000a6
:10093000d0232000808f50000400360010c0b30088
:1009400013e8b700d1a2a80002003700d1a2a90085
:100950001368ef0051418000901e2000808f5000ee
:1009600004003e0010c0b30014e8b700d622a8006f
:10097000020037001468ef00d622a9000080fa00b8
:10098000000006000000fa0040c0b300310107007b
:10099000404188004141800000202000808f5000ad
:1009a0000300360010c0b30015e8b700010037009f
:1009b0001568ef000080fa00000006000000fa0051
:1009c00013c8bf00e14f50000600320014c8bf003a
:1009d000e14f50000300320015c8bf00e14f500046
:1009e00002003a0021e1a80004003700d1c2a900aa
:1009f00021e1a90000482000e00888000080fa00fa
:100a0000000006000000fa000ec8bf000004e0006d
:100a100006003a000fc8bf000004e00003003a00df
:100a200010c8bf000004e0000200320013e1a8007b
:100a30000400370013e1a900004820007008880076
:100a4000cb02a9000080fa00000006000600fa00b0
:100a5000200798000000eb00000f78000000eb007a
:100a6000100798000000eb00100798000b003700fb
:100a70000000eb00000f7800010037001e0fe800b7
:100a80002e0090009e007800808f5000fbff360003
:100a90001e0090000000e800100798001e00900063
:100aa000e90f5000f2ff36000080fa000000060057
:100ab0000400fa00204798000040eb00004f780047
:100ac000e2c2a800ae409000014f780000cfb30012
:100ad0001e4f60001e00fb004280de00004f7800c9
:100ae000e1168000300c200000806000e0168800d5
:100af0009e00fb00e016800001007000e0168800f8
:100b0000dc02a80000192000d0ff0700dc02a900c9
:100b1000ae409000014f78009e4078006fcf60009b
:100b20001e00fb004200dd00004f7800e11680004f
:100b3000300c200000806000e01688009e00fb0062
:100b4000e016800001007000e0168800dc02a800ba
:100b500000192000bdff0700dc02a9000080fa0098
:100b6000000006000600fa00204798003147980070
:100b7000424798000040eb00004f78002e40900064
:100b8000e14f500003003a0000c8b300004f780066
:100b90000200370000ccb300004f78009e40780080
:100ba0003e40900000c04000004f78001e4078009a
:100bb000380007004e409000bdff07000080fa009b
:100bc000000006000400fa00100798000000eb0087
:100bd000000f7800050037001e0090001e00400046
:100be00010407800b2ff07001e0fe8001e009000c2
:100bf0001e004000104078000004e000f6ff3a00bc
:100c00000080fa00000006000800fa004047980043
:100c100051479800320798000000eb00000f780061
:100c20000040eb00204798004e409000e14f5000fc
:100c300003003a0000c8b3002047980002003700c4
:100c400000ccb30020479800ae4090005e4090007a
:100c500000c04000204798002e4090000d00070083
:100c6000050037003e0090001e0040001040780054
:100c70008fff07001e0fe8003e0090001e0040009e
:100c8000104078000004e000f6ff3a000080fa000f
:100c9000000006000400fa00204798000040eb0026
:100ca000004f7800e2c2a900ae409000014f7800ea
:100cb00000cfb3001e4f60001e00fb004280de002c
:100cc000004f7800e1168000300c200000806000aa
:100cd000e01688009e00fb00e01680000100700016
:100ce000e0168800dc02a8000019200057ff07006a
:100cf000dc02a900ae409000014f78009e407800d1
:100d00006fcf60001e00fb004200dd00004f780046
:100d1000e1168000300c200000806000e0168800a2
:100d20009e00fb00e016800001007000e0168800c5
:100d3000dc02a8000019200044ff0700dc02a90023
:100d40000080fa00000006000000fa0000192000f0
:100d50003eff0700e0168000c000b300e0168800e8
:100d6000dc02a8000019200038ff0700dc02a900ff
:100d70000019200035ff0700dc02a8000019200040
:100d800032ff0700dc02a900001920002fff070036
:100d9000dc02a800001920002cff0700dc02a900db
:100da0000019200029ff070080c0b300b9ff070029
:100db0000019200025ff070060c0b300b5ff070041
:100dc0000019200021ff0700c0c0b300b1ff0700d9
:100dd000001920001dff070010c0b300adff070081
:100de0000019200019ff070000c8b300a9ff070081
:100df0000019200015ff070000ccb300a5ff070075
:100e00000019200011ff07000080fa000000060012
:100e10000000fa00f0ff200030168800c6e2a900aa
:100e2000c702a900d822ef00de22ef00d222ef0095
:100e3000cc22ef00ca22ef00dc22ef00e222ef001a
:100e4000d022ef00d622ef00cae2a8000080fa000c
:100e5000000006000200fa00004f78001e00fb00b0
:100e600030158800a022a8000000000000158000b6
:100e7000610060000000e000fcff32000014800010
:100e80000080fa00000006000040da000000fe00ca
:100e9000881f78008a1f78004400f800080f20009f
:100ea000280288000004900010059000a000900027
:100eb00030019000c00190000300ca000280ca0007
:100ec0000030cb001a00cd004604c3000100ca0068
:100ed0004604c0001e04c0000605c0000100cd008d
:100ee00021009800050d7800eaba970005257800e2
:100ef0004400f9004f0578004f0478000000060018
:100f0000801f78004000b0000008eb004f00780020
:100f1000801f7800100090000018eb000018eb0014
:100f20000008eb004f007800000006004400f800c5
:100f3000020f200022028800910078003000ca00d1
:100f40003080ca000000cb002080ca000000cb0027
:100f50003100cd004000ca000000cb000000cb00f3
:100f60000010cb003100cd001180cc004400f9000e
:080f700000000600000005006e
:020000040000fa
:100f780054520000414e0000535400004543000005
:100f8800482000005359000053540000454d00000c
:100f980000460000415500004c5400000048000085
:100fa80049470000482000004f500000205600002c
:100fb8004f4c00005441000047450000004c000021
:100fc8004f570000204f000050200000564f0000ef
:100fd8004c5400004147000045000000484900000b
:100fe80047480000204f00005020000043550000f3
:100ff80052520000454e00005400000042410000db
:10100800545400004552000059200000564f00007b
:101018004c54000041470000453a000000420000df
:10102800415400005445000052590000204c000073
:101038004f57000000420000415400005445000092
:10104800525900002043000055520000524500004c
:101058004e5400003a0000004d410000494e000087
:1010680053200000564f00004c4100005447000038
:10107800452000004c4f0000570000004d41000083
:10108800494e000053200000564f00004c54000009
:10109800414700004520000048490000474800003b
:1010a800004d0000414900004e530000204300005d
:1010b80055520000524500004e54000020480000e0
:1010c80049470000480000004d410000494e00001b
:1010d800532000004355000052520000454e0000c6
:1010e800543a0000004d0000414900004e530000f2
:1010f800205600004f4c00005441000047450000b6
:101108003a0000004f5500005450000055540000ac
:10111800205600004f4c0000544100004745000095
:101128003a0000004f55000054500000555400008c
:101138002043000055520000524500004e54000064
:101148003a0000004f55000054500000555400006c
:10115800204600005245000051550000454e000051
:10116800435900003a000000450100005e010000fc
:101178007701000090010000a9010000c2010000f1
:10118800dc010000f50100000e020000270200004b
:101198004002000059020000720200008b020000a9
:1011a800a4020000bd020000d6020000ef02000009
:1011b80008030000210300003a0300005303000065
:1011c8006c030000850300009e030000b7030000c5
:1011d800d0030000e8030000010400001a04000026
:1011e800330400004b040000640400007d04000088
:1011f80095040000ae040000c6040000df040000ef
:10120800f704000010050000280500004005000054
:10121800590500007105000089050000a1050000be
:10122800ba050000d2050000ea0500000206000029
:101238001a06000032060000490600006106000098
:101248007906000091060000a8060000c00600000c
:10125800d8060000ef060000070700001e07000080
:10126800350700004d070000640700007b070000f9
:1012780092070000a9070000c0070000d707000078
:10128800ee070000040800001b08000032080000f8
:10129800480800005f080000750800008c0800007e
:1012a800a2080000b8080000ce080000e40800000a
:1012b800fa08000010090000260900003c09000097
:1012c80052090000670900007d090000920900002a
:1012d800a8090000bd090000d2090000e7090000c4
:1012e800fc090000110a0000260a00003b0a000061
:1012f800500a0000640a0000790a00008d0a000004
:10130800a20a0000b60a0000ca0a0000de0a0000ad
:10131800f20a0000060b00001a0b00002d0b00005b
:10132800410b0000550b0000680b00007b0b000010
:101338008e0b0000a20b0000b50b0000c70b0000cd
:10134800da0b0000ed0b0000ff0b0000120c000090
:10135800240c0000370c0000490c00005b0c000056
:101368006d0c00007f0c0000900c0000a20c000027
:10137800b40c0000c50c0000d60c0000e70c0000ff
:10138800f80c0000090d00001a0d00002b0d0000dc
:101398003c0d00004c0d00005c0d00006d0d0000c0
:1013a8007d0d00008d0d00009d0d0000ad0d0000ad
:1013b800bc0d0000cc0d0000db0d0000ea0d0000a4
:1013c800fa0d0000090e0000180e0000260e00009d
:1013d800350e0000440e0000520e0000600e0000a2
:1013e8006e0e00007d0e00008a0e0000980e0000b0
:1013f800a60e0000b30e0000c10e0000ce0e0000c5
:10140800db0e0000e80e0000f50e0000020f0000e1
:101418000e0f00001b0f0000270f0000330f000005
:101428003f0f00004b0f0000570f0000630f000034
:101438006e0f00007a0f0000850f0000900f00006b
:101448009b0f0000a60f0000b10f0000bb0f0000ab
:10145800c50f0000d00f0000da0f0000e40f0000f5
:10146800ee0f0000f70f0000011000000a10000046
:10147800141000001d100000261000002f1000009e
:101488003710000040100000481000005010000005
:101498005910000061100000681000007010000072
:1014a800781000007f100000861000008d100000ea
:1014b800941000009b100000a2100000a81000006b
:1014c800ae100000b5100000bb100000c1100000f5
:1014d800c6100000cc100000d1100000d71000008a
:1014e800dc100000e1100000e6100000ea10000027
:1014f800ef100000f3100000f7100000fb100000d0
:10150800ff10000003110000071100000a1100007d
:101518000e11000011110000141100001711000035
:10152800191100001c1100001e11000020110000fc
:1015380022110000241100002611000028110000cb
:10154800291100002b1100002c1100002d110000a2
:101558002e1100002e1100002f1100002f11000085
:101568002f110000301100002f1100002f11000072
:101578002f1100002e1100002e1100002d11000067
:101588002c1100002b110000291100002811000067
:101598002611000024110000221100002011000073
:1015a8001e1100001c110000191100001711000085
:1015b80014110000111100000e1100000a110000a2
:1015c8000711000003110000ff100000fb100000cd
:1015d800f7100000f3100000ef100000ea10000000
:1015e800e6100000e1100000dc100000d710000039
:1015f800d1100000cc100000c6100000c11000007f
:10160800bb100000b5100000ae100000a8100000cc
:10161800a21000009b100000941000008d10000024
:10162800861000007f100000781000007010000085
:1016380068100000611000005910000050100000f0
:101648004810000040100000371000002f10000064
:10165800261000001d100000141000000a100000e1
:1016680001100000f70f0000ee0f0000e40f00006b
:10167800da0f0000d00f0000c50f0000bb0f0000fc
:10168800b10f0000a60f00009b0f0000900f000094
:10169800850f00007a0f00006e0f0000630f000036
:1016a800570f00004b0f00003f0f0000330f0000e2
:1016b800270f00001b0f00000e0f0000020f000094
:1016c800f50e0000e80e0000db0e0000ce0e000054
:1016d800c10e0000b30e0000a60e0000980e000018
:1016e8008a0e00007d0e00006e0e0000600e0000e5
:1016f800520e0000440e0000350e0000260e0000b9
:10170800180e0000090e0000fa0d0000ea0d000096
:10171800db0d0000cc0d0000bc0d0000ad0d00007d
:101728009d0d00008d0d00007d0d00006d0d000069
:101738005c0d00004c0d00003c0d00002b0d00005e
:101748001a0d0000090d0000f80c0000e70c00005d
:10175800d60c0000c50c0000b40c0000a20c000060
:10176800900c00007f0c00006d0c00005b0c00006a
:10177800490c0000370c0000240c0000120c00007b
:10178800ff0b0000ed0b0000da0b0000c70b000098
:10179800b50b0000a20b00008e0b00007b0b0000b5
:1017a800680b0000550b0000410b00002d0b0000da
:1017b8001a0b0000060b0000f20a0000de0a000007
:1017c800ca0a0000b60a0000a20a00008d0a00003a
:1017d800790a0000640a0000500a00003b0a000071
:1017e800260a0000110a0000fc090000e7090000b1
:1017f800d2090000bd090000a809000092090000f4
:101808007d09000067090000520900003c0900003a
:101818002609000010090000fa080000e40800008a
:10182800ce080000b8080000a20800008c080000dc
:10183800750800005f080000480800003208000032
:101848001b08000004080000ee070000d70700008e
:10185800c0070000a9070000920700007b070000ee
:10186800640700004d070000350700001e07000050
:1018780007070000ef060000d8060000c0060000b9
:10188800a806000091060000790600006106000025
:1018980049060000320600001a0600000206000091
:1018a800ea050000d2050000ba050000a105000005
:1018b8008905000071050000590500004005000079
:1018c8002805000010050000f7040000df040000f0
:1018d800c6040000ae040000950400007d0400006a
:1018e800640400004b040000330400001a040000e4
:1018f80001040000e8030000d0030000b703000063
:101908009e030000850300006c03000053030000e1
:101918003a0300002103000008030000ef02000062
:10192800d6020000bd020000a40200008b020000e5
:101938007202000059020000400200002702000065
:101948000e020000f5010000dc010000c2010000e9
:10195800a901000090010000770100005e0100006d
:10196800450100002c0100004465000076000000dd
:020000040000fa
:10197800000800003a0000000000000040080000d5
:101988000400000002000000010001000000000047
:101998003a0800000600000000000000fa0f0000ee
:0c19a8000600000000000000000000002d
:020000040000fa
:0200000401f009
:04000000f7bf000046
:020000040000fa
:0200000401f009
:04000400ff7f00007a
:020000040000fa
:0200000401f009
:04000800fffb0000fa
:020000040000fa
:0200000401f009
:04001400ffff0000ea
:020000040000fa
:0200000401f009
:04001800ffff0000e6
:00000001FF
